S31508000000600800209D0100080F1F0008BB1D00089E
S315080000100D1F00085B0700081124000800000000F7
S31508000020000000000000000000000000131F000888
S315080000303108000800000000111F0008151F0008FD
S31508000040B7010008B7010008B7010008B7010008A2
S31508000050B7010008B7010008B7010008B701000892
S31508000060B7010008B7010008B7010008B701000882
S31508000070B7010008B7010008B7010008B701000872
S315080000805D07000869070008B7010008B7010008FE
S31508000090B7010008B7010008B7010008B701000852
S315080000A0B7010008B7010008B7010008B701000842
S315080000B0B7010008B7010008B7010008B701000832
S315080000C0B7010008B7010008B7010008B701000822
S315080000D0B7010008F923000805240008B70100083D
S315080000E0B7010008B7010008B7010008B701000802
S315080000F0B7010008B7010008B7010008B7010008F2
S31508000100B7010008B7010008B7010008B7010008E1
S31508000110B7010008B7010008B7010008B7010008D1
S31508000120B7010008B701000875070008B7010008FD
S31508000130B7010008B7010008B7010008B7010008B1
S31508000140B7010008B7010008B7010008B7010008A1
S31508000150B7010008B701000881070008B7010008C1
S31508000160B7010008B7010008B7010008B701000881
S31508000170B7010008B7010008B70100080000000031
S31508000180B7010008B7010008DFF80CD000F064FAE0
S3150800019000480047012E00086008002006488047EE
S315080001A006480047FEE7FEE7FEE7FEE7FEE7FEE74E
S315080001B0FEE7FEE7FEE7FEE7AD1F00088901000837
S315080001C02DE9F05F0546002092469B46884606467E
S315080001D0814640241BE0284641464746224600F011
S315080001E073F853465A46C01A914110D31146184619
S315080001F0224600F05AF82D1A67EB01084F462246A8
S315080002000120002100F051F817EB00094E41201E8D
S31508000210A4F10104DFDC484631462A464346BDE8D8
S31508000220F09FD2B201E000F8012B491EFBD27047BD
S315080002300022F6E710B513460A4604461946FFF7A4
S31508000240F0FF204610BD034611F8012B00F8012BDC
S31508000250002AF9D11846704700F0004230F00040F5
S315080002600AD0C10D01F56071C0F3160042EA0151CA
S31508000270C20840071143704700200146704730B551
S315080002800B46014600202022012409E021FA02F546
S315080002909D4205D303FA02F5491B04FA02F52844E0
S315080002A0151EA2F10102F1DC30BD202A04DB203A3A
S315080002B000FA02F1002070479140C2F1200320FAAB
S315080002C003F3194390407047202A04DB203A21FAA9
S315080002D002F00021704721FA02F3D040C2F1200251
S315080002E091400843194670472DE9FE4F804681EA3A
S315080002F00300C00F0C46009021F0004123F0004592
S31508000300B8EB0200A94105D24046214690461C4654
S315080003100B46024623F00040104347D0270DC7F38B
S315080003200A00C3F30A510290401A019040286BDA7A
S31508000330C3F3130040F4801B0098924620B10023B3
S31508000340D2EB030A63EB0B0B01985946C0F1400246
S315080003505046FFF7AAFF06460D4650465946019AEB
S3150800036000F08CF910EB08006141002487EA11526D
S3150800037084EAE7731A4340D0009A62B3019A012AC5
S315080003804FEA075215DC001B61EB02014FF00042F1
S3150800039002EA0752CDE90042001C41F580113246B7
S315080003A02B4600F08CF903B0BDE8F08F4046214695
S315080003B0F9E7001B61EB0201001C41F580130018E8
S315080003C05B412018A2F5001747EB030140EAD570F8
S315080003D0B6196D4111E06D084FEA360645EAC07553
S315080003E04FEA0752001B61EB0201001C41F5801120
S315080003F049084FEA30000019514132462B4603B0EE
S31508000400BDE8F04F00F04CB90098012240000023E7
S31508000410D0EB020263EBE073009821464FEAE074E2
S31508000420B8EB000061EB0401E9E783F000435BE702
S3150800043081F0004158E72DE9FE4F81EA030404F0F4
S31508000440004421F0004100944FF0000B23F00043D4
S3150800045050EA01045ED052EA03045BD0C3F30A549F
S31508000460C1F30A552C44A4F2F3340194A0FB0254B8
S31508000470C1F3130141F48011C3F3130343F480134A
S3150800048001FB024400FB034E840A970A44EA81549E
S3150800049047EA8357A4FB076802958D0A05FB07857B
S315080004A04FEA932C04FB0C542705029D4FEA065885
S315080004B047EA1637B5EB08056EEB070C870E920E62
S315080004C047EA811742EA8312A7FB0201B6EB0B0142
S315080004D064EB00042B0D43EA0C335E1844EB1C5006
S315080004E0DA465146E7FB0201C5F313044FEA0B331C
S315080004F043EA14534FEA0432019C43EA0603A4F183
S315080005000C040294009CCDE900B400F0D8F803B0BE
S31508000510BDE8F08F00200146F9E72DE9F04D81EAA4
S31508000520030404F0004B21F0004514464FF0000A7E
S3150800053023F0004150EA050220D054EA01021DD0FA
S31508000540C5F30A570246C5F31303C1F31300C1F3F3
S315080005500A5640F4801543F48013A7EB0608101BCF
S31508000560D64608F2FD3873EB050002D308F10108F8
S3150800057001E092185B41B8F1000F03DA002001464A
S31508000580BDE8F08D00204FF48011064684460EE043
S31508000590171B73EB050705D3121B63EB050306430D
S315080005A04CEA010C49084FEA300092185B4150EAC0
S315080005B00107EDD152EA030012D082EA040083EA69
S315080005C00501084305D0101BAB4106D201220023C2
S315080005D006E000224FF0004302E06FF001025310DC
S315080005E01AEB06004CEB085110EB0A0041EB0B0125
S315080005F0BDE8F04D00F054B8C1F30A52C1F3130137
S3150800060040F2FF3341F480119A4202DA0020014693
S31508000610704740F233439A42A2F2334202DC524216
S31508000620FFF752BEFFF741BE30B5041E71F1000454
S3150800063004DB4FF00044404264EB0101141E73F1E1
S31508000640000405DB1C464FF00043524263EB0403EB
S31508000650994208BF904230BD064C074D06E0E06857
S3150800066040F0010394E8070098471034AC42F6D3EB
S31508000670FFF78EFD1C2F00083C2F0008202A06DBFA
S31508000680CB17203A41FA02F043EAE07306E041FA52
S3150800069002F3D040C2F12002914008431946704740
S315080006A010B5141E73F1000408DA401C41F100016C
S315080006B092185B411A4301D120F0010010BD2DE9C3
S315080006C0F04D92469B4611B1B1FA81F202E0B0FABA
S315080006D080F220329046FFF7E8FD04460F4640EACE
S315080006E00A0041EA0B0153465A46084313D01146FD
S315080006F053EA010019D0C8F140025046FFF7E4FD5D
S3150800070005460E46504659464246FFF7CEFD084373
S3150800071005D0012004E020463946BDE8F08D0020CA
S31508000720054346EAE0762C4337430A986305E40A0C
S31508000730A0EB08000022FD0A44EA47540A3002D515
S3150800074000200146E9E7010510196941DDE9084578
S3150800075000196941BDE8F04DA2E7FEE7014800F03F
S3150800076061BA00002C030020014800F05BBA0000C3
S315080007708C030020014800F055BA00006C020020E6
S31508000780014800F04FBA0000CC0200200168182387
S31508000790CAB2103AB2FBF3F2054B6FF30901032A0A
S315080007A09B5CC36500D9091D816508467047000032
S315080007B0CC2E000810B5014600208B698A6A4FF0D6
S315080007C0C07453B1B3F5005F15D072B1012A0CD0CD
S315080007D0022A0AD0032A09D104E01AB1012A06D04E
S315080007E0022A03D1C96AC90100D5012010BDC96A08
S315080007F0A142FAD010BD002AF7D0012AF2D0022A67
S31508000800F3D0032AF3D010BD30B50468256825F463
S3150800081080252560046863608368402B036803D0DD
S3150800082099600068C26030BD9A600068C16030BDDA
S315080008307047000010B524220549064800F0D2FF8B
S3150800084005480068016821F00801016010BD000034
S31508000850EC030020240200202C03002010B5FFF72B
S31508000860E9FFB7480178C82908D1827800F1240140
S31508000870162A04D0142A7CD00B2A7BD05AE1B0F869
S315080008800320C2F30A020A800279D308427943EAAE
S315080008904213C3F30A034B808379920942EA83031E
S315080008A0C27943EA8223C3F30A038B80037A520888
S315080008B042EAC312C2F30A02CA801C09437A44EA0E
S315080008C00314C4F30A040C81847ADB0943EA44045A
S315080008D0C37A44EA4324C4F30A044C819C08037B84
S315080008E044EA8314C4F30A048C81447B5B0943EA13
S315080008F0C403CB81C389C3F30A030B82C37BDC0819
S31508000900037C44EA4314C4F30A044C82447C9B09DE
S3150800091043EA8404837C44EA8324C4F30A048C826D
S315080009205C08C37C44EAC314C4F30A04CC821C09D9
S31508000930037D44EA0314C4F30A040C83447DDB09EB
S3150800094043EA4404837D44EA4324C4F30A044C83FB
S315080009509C08C37D00EE102A44EA8314C4F30A04F3
S315080009608C83007E5B0943EAC000C883B8EE400A60
S3150800097001E0C6E0DBE0DFED734AF0EE642A9FEDA6
S31508000980726AB0EE462A9FED715AF0EE451ADFED0F
S31508000990706AB0EE661A9FED6F7AF0EE470A02F0BB
S315080009A0EDF981ED080A8888F0EE642A00EE100A4F
S315080009B0B8EE400ADFED685AF0EE451AB0EE652A41
S315080009C0DFED667AF0EE470AB0EE671A02F0D6F95E
S315080009D081ED090A0888F0EE642A00EE100AB0EEE6
S315080009E0462AF0EE451AB8EE400AB0EE671AF0EE5F
S315080009F0470A02F0C3F981ED0A0A4888F0EE642A2C
S31508000A0000EE100AB0EE462AF0EE451AB8EE400A95
S31508000A10B0EE661AF0EE470A02F0B0F981ED0B0A5D
S31508000A20088AF0EE642A00EE100AB0EE652AF0EEA7
S31508000A30451AB8EE400A9FED4A6AB0EE461ADFED4F
S31508000A40496AF0EE660A02F099F981ED0C0A488ABD
S31508000A50F0EE642A00EE100AB0EE652AF0EE451AAA
S31508000A60B8EE400AB0EE461AF0EE660A02F086F9CB
S31508000A7081ED0D0A888A4FF47A73984201D90120CC
S31508000A8000E0002081F838004C894FF478704FF464
S31508000A90E062844201D1012404E0944201D1022497
S31508000AA000E0002481F839408C89844201D1012470
S31508000AB004E0944201D1022400E0002481F83A407F
S31508000AC0CC8A9C4201D9012300E0002381F83B30FF
S31508000AD00B89834201D1012304E0934201D1022309
S31508000AE000E0002381F83C30CB89834201D1012004
S31508000AF004E0934201D1022000E0002081F83D0085
S31508000B0018E0C27801F83E2F02794A7042798A7055
S31508000B108279CA70C2790A71027A4A71427A8A71EE
S31508000B20827ACA71C27A0A72007B487202E0C07879
S31508000B30A1F84800BDE8104024210148FFF778BB1A
S31508000B40EC0300200000C8420000C8C20000784438
S31508000B500000E24400002E43000000000060E2446A
S31508000B600000E04400003F4372B6FEE72DE9F0417D
S31508000B700446876D00F0E0FA064694F8350000252D
S31508000B80022806D08020606584F834500120BDE82C
S31508000B90F0812068016821F016010160206841692A
S31508000BA021F080014161206C08B9A06C20B1206851
S31508000BB0016821F0080101602068016821F001013F
S31508000BC001600CE000F0B8FA801B052807D9202040
S31508000BD06065032084F8350084F83450D7E7206828
S31508000BE00068C007EED194F85C103F208840B860D2
S31508000BF0012084F8350084F834500020C7E790F8BF
S31508000C003510022903D0802141650120704705214E
S31508000C1080F835100068016821F0010101600020A4
S31508000C20704700002DE9F84304464FF00009CDF857
S31508000C30009063484FF41651A56D0068B0FBF1F7B4
S31508000C402E6894F85C10082000FA01F131420FD0A2
S31508000C5021680A6852070BD50A6822F004020A605E
S31508000C6094F85C108840A860606D40F001006065EB
S31508000C7094F85C104FF0010808FA01F0304208D0E9
S31508000C8021684969090604D5A860606D40F002002C
S31508000C90606594F85C1004208840304208D02168CA
S31508000CA00968890704D5A860606D40F0040060658E
S31508000CB094F85C1010208840304218D021680968E2
S31508000CC0090714D5A86020680168490304D5006897
S31508000CD0000308D5A16C07E00168C90503D40168BB
S31508000CE021F008010160216C09B12046884794F873
S31508000CF05C1020208840304231D021680968C90636
S31508000D002DD5A86094F8350005282068016806D016
S31508000D10490347D5006800031DD4616C1CE021F027
S31508000D20160101602068416921F080014161206C4B
S31508000D3008B9A06C20B12068016821F0080101609B
S31508000D4094F85C103F208840A86084F8358084F8C1
S31508000D503490216D1FE0E16B09B120468847606D2C
S31508000D6000282BD0606DC00714D0052084F8350004
S31508000D702068016821F0010101600098401C00907C
S31508000D80B84203D820680068C007F6D184F83580D1
S31508000D9084F83490E16C002910D001B02046BDE8F3
S31508000DA0F04308470168C905D5D4016821F0100148
S31508000DB0016084F8358084F83490CCE7BDE8F88380
S31508000DC0000000202DE9F041044600F0B5F906467A
S31508000DD05CB1022084F83500002584F83450206878
S31508000DE0016821F0010101600DE00120BDE8F081F4
S31508000DF000F0A2F9801B052805D92020606503208C
S31508000E0084F83500F2E720680068C007F0D1226848
S31508000E10116820480140D4E901031843D4E9033690
S31508000E203343184363691843A3691843E3691843AE
S31508000E30236A18430843616A042903D1D4E90B13CA
S31508000E4019430843106020684069666A20F0070164
S31508000E5030460E43012704280CD1A06A0643E06AEF
S31508000E6040B12046FFF7A6FC20B14020606584F813
S31508000E703570BAE7206846612046FFF787FC94F884
S31508000E805C203F2191408160656584F835700020BB
S31508000E90ACE700003F8010F02DE9F0410446866D6E
S31508000EA090F83400002501280DD0012084F834007C
S31508000EB094F835700020012F07D084F834000225F5
S31508000EC02846BDE8F0810220FBE7022784F8357042
S31508000ED060652046FFF798FC94F85C103F20884030
S31508000EE0B0602068016841F016010160206C20B1ED
S31508000EF02068016841F0080101602068016841F036
S31508000F0001010160DCE7000070B5044600F014F941
S31508000F100546601C02D004480078044400F00CF929
S31508000F20401BA042FAD370BD040000202DE9F84FFB
S31508000F30DFF8BCA10022012503264FF00F090AF1AC
S31508000F40040BAAF1040E00BF0B6805FA02F423404D
S31508000F50A34270D10F7907F00307012F01D0022FA2
S31508000F6016D187684FEA420806FA08FC27EA0C07F2
S31508000F70D1F80CC00CFA08FC4CEA070CC0F808C0FB
S31508000F804768A7430C79C4F3001494403C43446073
S31508000F900C79E443A4070AD0C4684FEA420C06FA5F
S31508000FA00CF7BC438F6807FA0CF72743C7600C7920
S31508000FB004F00304022C12D1D40800EB840CDCF8EC
S31508000FC020405707FF0E09FA07F824EA0804D1F863
S31508000FD0108008FA07F848EA0408CCF82080046864
S31508000FE04FEA420C06FA0CF7BC430F7907F00307E1
S31508000FF007FA0CF7274307604C6814F4403F70D093
S315080010003C4C276847F480472760246822F003078A
S3150800101004F480440094384C07EB040CDCF80848C8
S3150800102097074FEA177809FA08F7BC43334FB842CF
S3150800103002D1002724E054E0314FB84201D10127FC
S315080010401EE0304FB84201D1022719E02E4FB842B0
S3150800105001D1032714E02D4FB84201D104270FE030
S315080010602B4FB84201D105270AE02A4FB84201D1D1
S31508001070062705E0284FB84201D1072700E00827D0
S3150800108007FA08F72743CCF80878DAF800405746F5
S31508001090D1F804C09C435FEACC2C00D51C433C60C5
S315080010A0DBF800405F46D1F804C09C435FEA8C2C0D
S315080010B000D51C433C60DEF800407746D1F804C0F2
S315080010C09C435FEA8C3C00D51C433C60084F083FB4
S315080010D03C68D1F804C09C435FEACC3C00D51C436D
S315080010E03C60521C102AFFF42FAFBDE8F88F0000B1
S315080010F0083C0140443802400030014000000240EC
S315080011000004024000080240000C024000100240A1
S315080011100014024000180240001C0240426921EAFD
S3150800112002030A4043EA0241816170470AB18161BC
S3150800113070470904FBE70000014880687047000013
S3150800114004000020024881680278114481607047D3
S31508001150040000200B4810B5016841F400710160D5
S31508001160016841F480610160016841F480710160A1
S31508001170032000F06FF80F2000F006F800F024F8BE
S31508001180002010BD003C024070B50D4D04464FF4DA
S315080011907A712878B1FBF0F00A490968B1FBF0F0DA
S315080011A000F00CFB48B9102C07D200222146501E2D
S315080011B000F030F800206C6070BD012070BD0000A2
S315080011C004000020000000200A4808B5016841F420
S315080011D080410160006800F4804000900548001FC7
S315080011E0016841F080510160006800F0805000906D
S315080011F008BD000044380240002809DB00F01F0241
S31508001200012191404009800000F1E020C0F800115A
S3150800121070470000F0B40E4B1B680C46C3F302235C
S31508001220C3F10705042D00D90425191D072901D284
S31508001230002300E0DB1E012606FA05F1491E2140BF
S3150800124099409E40761E16403143F0BC01F000B925
S315080012500CED00E0064900F0070208684FF6FF03A8
S31508001260184040EA0220034A10430860704700000D
S315080012700CED00E00000FA052DE9F0470E460500E2
S3150800128065D0DFF81481D8F80000F7B200F007003F
S31508001290B04207D288F80070D8F8000000F00700BE
S315080012A0B04254D128683D4C810712D5400703D572
S315080012B0206840F4E05020602878000703D52068AD
S315080012C040F4604020602068A96820F0F0000843D8
S315080012D020602878C0072DD0304968680839012869
S315080012E012D0022813D0032811D0096889070029CB
S315080012F02DDA216821F0030101432160FFF71CFF65
S31508001300814641F2883A0EE009688903EFE70968E1
S315080013108901ECE7FFF710FFA0EB0901514502D957
S315080013200320BDE8F0872068696800F00C00B0EB80
S31508001330810FEFD1D8F80010404601F00701B142FD
S3150800134007D90770006800F00700B04201D00120F5
S31508001350E7E72878400705D52068E96820F4E050D3
S31508001360084320602878000706D52068296920F4F4
S31508001370604040EAC100206000F038F82168084A59
S31508001380C1F30311515CC840064908600648006865
S31508001390FFF7FAFE0020C4E7003C02400838024086
S315080013A0B42E000800000020080000200448054963
S315080013B000680968044AC1F38221515CC840704735
S315080013C00000002008380240C42E000804480549D9
S315080013D000680968044AC1F34231515CC840704745
S315080013E00000002008380240C42E0008154810B531
S315080013F0006810F00C02144813D01449042A0FD0C0
S31508001400082A0ED10F4C241F2268236802F03F02D7
S315080014105B0207D52068C0F38810A0FB010106E02F
S31508001420084610BD2168C1F38811A1FB00010023FD
S31508001430FEF7C6FE2168C1F30141491C4900B0FB0D
S31508001440F1F010BD083802400024F40040787D0110
S315080014502DE9F84F04006ED02078DFF84C93C007CA
S31508001460A9F104054AD009F104000168C1F3810114
S31508001470012908D00068C0F3810002280AD1D9F8EA
S315080014800000400206D52868800337D56068002822
S31508001490E1D033E06068B0F5803F10D0B0F5A02FFA
S315080014A0286810D020F480302860286820F480202E
S315080014B028606068A8B1FFF73FFE06460DE0286879
S315080014C040F48030F4E740F480202860F7E700BF56
S315080014D0FFF732FE801B642873D828688003F7D587
S315080014E00CE0FFF729FE064605E000BFFFF724FEDD
S315080014F0801B6428F0D828688003F7D42078DFF8A2
S31508001500AC8280074FF0000A3ED5A748001D016847
S3150800151011F00C0F08D00068C0F3810002280BD127
S31508001520D9F80000400207D42868800716D5E06875
S31508001530012800D112E033E1E068B8B10120C8F80B
S315080015400000FFF7F9FD064605E000BFFFF7F4FDCA
S31508001550801B0228C0D828688007F7D52868216923
S3150800156020F0F80040EAC10028600DE0C8F800A0A5
S31508001570FFF7E2FD064604E0FFF7DEFD801B0228C2
S315080015801FD828688007F7D42078000722D5864F09
S3150800159087486169703771B101210160FFF7CCFD99
S315080015A0064604E0FFF7C8FD801B022809D83868FC
S315080015B08007F7D50EE0C0F800A0FFF7BDFD064688
S315080015C005E082E0FFF7B8FD801B02287DD8386861
S315080015D08007F7D42078400768D5DFF8CCB1002714
S315080015E00BF13C0BDBF80000C0000BD4DBF8001055
S315080015F041F08051CBF80010DBF80000012700F01D
S31508001600805000906B4E3068C00510D4306840F4A6
S3150800161080703060FFF790FD009005E0FFF78CFDC5
S315080016200099401A022850D83068C005F6D55E4E93
S31508001630A0686C3601280FD00528306810D020F035
S3150800164001003060306820F004003060A068B8B14E
S31508001650FFF772FD00900FE0306840F00100F4E7F4
S3150800166040F004003060F7E7FFF766FD0099411A7D
S3150800167041F28830814266D830688007F4D50EE09A
S31508001680FFF75AFD009007E0FFF756FD0099411A4B
S3150800169041F28830814256D830688007F4D42FB199
S315080016A0DBF8001021F08051CBF80010A069C8B310
S315080016B03D49091D0968C1F3810102294AD002285A
S315080016C0504607D0C8F8600000E03CE0FFF734FD5C
S315080016D004463BE04746C8F86000FFF72DFD06467E
S315080016E005E000BFFFF728FD801B02282BD82868D5
S315080016F08001F7D4D4E907010843A16A2E4A4908AC
S3150800170002EB0141626A41EA8211084394F82C10FF
S3150800171040EA0161C9F8001001203866FFF70CFDA0
S31508001720044606E03EE000BFFFF706FD001B022860
S3150800173009D828688001F7D534E000BFFFF7FCFC1C
S31508001740001B022802D90320BDE8F88F286880010B
S31508001750F4D427E00128F7D0D9F80000E26900F4AC
S31508001760800191421CD1226A00F03F01914217D1B3
S3150800177047F6C071626A0140B1EB821F10D1A26AB6
S315080017804FF0FF3300F4403103EB5202B1EB024F46
S3150800179006D194F82C1000F07060B0EB016F01D000
S315080017A00120D1E70020CFE7043802400000474275
S315080017B0800E4742007000400000FFFF10B5401E33
S315080017C0B0F1807F01D3012010BD4FF0E0246061A5
S315080017D00F21601700F03CFE0020A0610720206161
S315080017E0002010BD38B5044690F84200202801D0E4
S315080017F0022038BD61B15AB1012020630020606320
S31508001800204600F077FD0028F3D1216B012901D08D
S31508001810012038BD21680A684968009121680C31A1
S3150800182051E8002F42F0100241E80023002BF5D1C1
S3150800183038BD000010B50446124884421AD1124930
S3150800184001F1C800FEF7FFFC0F4A10A1C832114883
S3150800185000F0E0FDC8210C48FEF7EAFCC7220A4959
S315080018602046FFF7BFFF0C480068016821F0080111
S31508001870016010BD09488442FBD1BDE81040084606
S31508001880FEF7ECBFDC0100201400002025730D0ACA
S3150800189000000000100000206C0200202402002036
S315080018A070470000F8B5016804460868CA684B69BD
S315080018B010F00F0F4FF0000559D003F0010602F49F
S315080018C09077374365D0C10705D0D10503D5616C3C
S315080018D041F001016164410705D5D90703D0616C60
S315080018E041F002016164810705D5D90703D0616C0F
S315080018F041F004016164010707D502F02001314374
S3150800190003D0616C41F008016164616C00293AD02A
S31508001910800604D5900602D5204600F003FC206810
S315080019204069616CC0F38010090700D460B3204693
S3150800193000F0C3FB20684069400621D520681430B2
S3150800194050E8001F21F0400140E80012002AF5D1B6
S31508001950E06BA8B16E490165E06BFFF750F9002806
S3150800196011D0E06B016D01B0BDE8F0400847830671
S315080019700FD593060DD52046BDE8F84000F0D2BB3A
S315080019802046FFF78DFFF8BD2046FFF789FF6564FF
S31508001990F8BD266B2023012E7DD1C6067BD5D6063B
S315080019A079D508684868009048694FF002064006ED
S315080019B041D5E16B086840680004000CE8D0A28DA8
S315080019C08242E5D9E085C869B0F5807F2DD02068C8
S315080019D00C3050E8001F21F4807140E80012002AFC
S315080019E0F5D12068143050E8001F21F0010140E8C5
S315080019F00012002AF5D12068143050E8001F21F0A3
S31508001A00400140E80012002AF5D184F842302563E7
S31508001A1020680C3050E8001F21F0100140E8001241
S31508001A20002AF5D1E06BFFF7A1F86663A08DE18D7A
S31508001A30401A81B22AE0A08DE18D401A81B2E08D6C
S31508001A400028A5D00029A3D022680C3252E8000F3E
S31508001A5020F4907042E80007002FF5D12068143072
S31508001A6050E8002F22F0010240E80027002FF5D1A8
S31508001A7084F84230256320680C3050E8002F22F0A5
S31508001A80100240E80023002BF5D166632046FFF7D5
S31508001A90D1FEF8BDFFE705062BD5150629D594F81E
S31508001AA041002128F5D1A068B0F5805F01D12069F1
S31508001AB0B0B1206A411C2162216800784860E08C38
S31508001AC0401E0004000CE084E3D12068C16821F0C0
S31508001AD08001C1602068C16841F04001C160D8E753
S31508001AE0206A0088C0F308004860206A801C2062CB
S31508001AF0E5E74006CDD55006CBD5CA68204622F084
S31508001B004002CA6084F8413000F056F9C1E7000087
S31508001B10BD1F000870B5040004D094F841000025E4
S31508001B2010B106E0012070BD84F84050204600F050
S31508001B3023F8242084F841002068C16821F4005164
S31508001B40C160204600F050FB2068016921F49041ED
S31508001B5001612068416921F02A0141612068C16854
S31508001B6041F40051C1606564202084F8410084F87E
S31508001B7042006563002070BD2DE9F04786B0044633
S31508001B8014216846FEF754FBDFF868C1022126686F
S31508001B90594803220723DFF8648100258F064FF092
S31508001BA0400A4FF4806966454DD1534E1436D6F82F
S31508001BB000C04CF0100CC6F800C0366806F01006D7
S31508001BC00596066846F001060660006800F0010002
S31508001BD0059050028DE8230069464046CDE9032367
S31508001BE0FFF7A4F9474E4648C8463060C6E901756E
S31508001BF0C6E903597561B561F561356230467562A6
S31508001C00FFF7E0F808B1FEF7AFFFE663B4633D4EB1
S31508001C103B4860367830C6E903587561B561F561A9
S31508001C203562756286E881043046FFF7CBF808B15D
S31508001C30FEF79AFFA663002211462520B463FFF734
S31508001C40E9FA252051E0DFF8C0C066454FD12A4E93
S31508001C501036D6F800C04CF4003CC6F800C036680A
S31508001C6006F400360596066846F001060660006822
S31508001C7000F0010005900C208DE8230069464046D7
S31508001C80CDE90323FFF752F91E4E2048C036B84661
S31508001C903060C6E90175C6E903597561B561F56134
S31508001CA035624F4630467562FFF78CF808B1FEF785
S31508001CB05BFFE663B463164E1448C6E903577561BD
S31508001CC0B561F56135621830756286E801053046FA
S31508001CD0FFF778F808B1FEF747FFA663002211461A
S31508001CE02620B463FFF796FA2620FFF785FA06B092
S31508001CF0BDE8F0870010014030380240000002407D
S31508001D00406402406C0200200044004088600240A3
S31508001D108C030020704770472DE9F843044690F875
S31508001D204100984616460D46202802D00220BDE8F6
S31508001D30F88385B17EB100206064212084F84100D3
S31508001D40FFF7FAF9A6848146E684A0682027B0F54D
S31508001D50805F02D003E00120E9E7206910B12E4632
S31508001D6000250EE000260CE08021204600F00AFB44
S31508001D70A8B9C6B116F8010B21684860E08C401E68
S31508001D80E084E08C4B464FF00002CDF80080002836
S31508001D90EAD14FF04001204600F0F4FA40B184F849
S31508001DA041700320C3E735F8020BC0F30800E3E7E8
S31508001DB084F841700020BAE77047FEE7194808B56D
S31508001DC0016841F480010160016801F48001009115
S31508001DD0016841F4001101600068002200F4001057
S31508001DE0009011461020FFF715FA1020FFF704FAA5
S31508001DF0002211461120FFF70DFA1120FFF7FCF912
S31508001E00002211463A20FFF705FA3A20FFF7F4F9BF
S31508001E10002211464620FFF7FDF9BDE80840462096
S31508001E20FFF7EAB93038024070B586B01421684623
S31508001E30FEF7FEF916480024016841F0200101600A
S31508001E40016801F020010591016841F080010160F7
S31508001E50016801F080010591016841F00101016006
S31508001E6000680C4E00F001004FF4C0650590002292
S31508001E7029463046FFF75AF901200095CDE90104B5
S31508001E80694630460394FFF751F806B070BD000066
S31508001E9030380240001402400C4810B50A49016067
S31508001EA04FF4E1314160002181600C22C160C0E934
S31508001EB004128161C161FFF72DFE002803D0BDE839
S31508001EC01040FEF751BE10BD00100140DC01002095
S31508001ED00C4810B50A4901600B4941600021816030
S31508001EE00C22C160C0E904128161C161FFF712FECC
S31508001EF0002803D0BDE81040FEF736BE10BD00002E
S31508001F000044004024020020A0680600FEE7FEE721
S31508001F1070477047FFF716B930B593B03021684659
S31508001F20FEF786F914210CA8FEF782F91D4800254C
S31508001F30016841F080510160006800F080501190FE
S31508001F401948016841F4804101600068022400F4E0
S31508001F50804011900120039010200490009406946C
S31508001F600820CDE90750A820CDE9090404200B90E4
S31508001F706846FFF76DFA08B172B6FEE70CA90F209E
S31508001F8081E831004FF4A0500F904FF48050109024
S31508001F9005210CA8FFF770F9002801D072B6FEE7F4
S31508001FA013B030BD40380240007000400248016856
S31508001FB041F470010160704788ED00E010B5806B50
S31508001FC00021C185C184FFF76BFC10BD70B5846B19
S31508001FD02068406994F84110C0F3C01000252129F3
S31508001FE004D118B1E584204600F08EF820684069CF
S31508001FF094F84210C0F38010222904D118B1E5855F
S31508002000204600F05AF8606C40F0100060642046E4
S31508002010FFF746FC70BD10B50146806B0968096874
S315080020204FF00002C9052ED4C28501680C3151E86B
S31508002030003F23F4807341E80034002CF5D1016891
S31508002040143151E8003F23F0010341E80034002C25
S31508002050F5D10168143151E8003F23F0400341E807
S315080020600034002CF5D1202180F84210016B01299B
S3150800207009D101680C3151E8003F23F0100341E80B
S315080020800034002CF5D14263016B012902D0FFF719
S3150800209041FE10BD818DFFF7CDFB10BD10B5806BDD
S315080020A001214163016B012902D0FFF734FE10BDFF
S315080020B0818D4908FFF7BEFB10BD01680C3151E858
S315080020C0002F22F4907241E80023002BF5D1016815
S315080020D0143151E8002F22F0010241E80023002BB9
S315080020E0F5D1016B012909D101680C3151E8002F9E
S315080020F022F0100241E80023002BF5D1202180F8B8
S31508002100421000210163704701680C3151E8002F25
S3150800211022F0C00241E80023002BF5D1202180F8E7
S315080021204110704708B590F84210222901D00220C4
S3150800213008BD82684FF480539A4201D1016921B1E2
S31508002140816A9A421BD04AB10AE00268816A5268DB
S31508002150C2F308020A80816A891C08E0026972B122
S315080021600268526802F07F020A70816A491C81621D
S31508002170C18D491E0904090CC18503D01BE00268FC
S315080021805268F1E70168CA6822F02002CA6001684D
S31508002190CA6822F48072CA6001684A6922F001029C
S315080021A04A61202180F8421000214163026B012A0E
S315080021B003D0FFF7AFFD002008BD016301680C31AD
S315080021C051E8002F22F0100241E80023002BF5D138
S315080021D001680A68D20602D50A6849680091818DA5
S315080021E0FFF728FBE7E7000070B5044600680169B9
S315080021F0E26821F44051114301612169A068E2694E
S3150800220008436169114308432168CA6849F20C63A7
S315080022109A430243CA6020684169A26921F4407161
S315080022201143416131492068884202D030498842C9
S3150800223002D1FFF7CBF801E0FFF7B8F8E26900230F
S31508002240192164253226B2F5004F626828D0A0FB12
S315080022500101930F9200FDF7B3FF0146B0FBF5F0BD
S315080022606FF01802504301EB800006EB0010B0FB3C
S31508002270F5F000F0F002B1FBF5F002EB0012B1FB4D
S31508002280F5F06FF01803584301EB800006EB0010D9
S31508002290B0FBF5F000F00F0021681044886070BDAF
S315080022A0A0FB010192185B41FDF78AFF0146B0FBCE
S315080022B0F5F00201B1FBF5F06FF01803584301EB96
S315080022C0800006EBC000B0FBF5F000F0F80002EB6A
S315080022D04002B1FBF5F0584301EB800006EBC00065
S315080022E0B0FBF5F000F00700D6E70000001001404B
S315080022F00014014038B581620446828500201346E1
S315080023006064222284F84220E56B1B4AEA63E56B87
S315080023101A4A2A64E56B1A4AEA64E26B10650A46A9
S315080023202168E06B091DFEF7B7FD20680168406863
S315080023300090206948B120680C3050E8001F41F42D
S31508002340807140E80012002AF5D12068143050E860
S31508002350001F41F0010140E80012002AF5D120686B
S31508002360143050E8001F41F0400140E80012002AEE
S31508002370F5D1002038BD0000172000089D20000870
S31508002380CD1F00082DE9F843984617460D46044622
S31508002390089E24E0701C22D0FEF7CEFEA0EB0800B3
S315080023A0B0421AD8CEB12068C168490717D5802D22
S315080023B015D0402D13D00168C94309070FD4016809
S315080023C00025406800902046FFF777FE08206064E5
S315080023D084F840500120BDE8F8830320FBE7206815
S315080023E0006835EA000004D00020B842D2D00020A8
S315080023F0F1E70120F9E700000148FFF753BA0000AA
S31508002400DC0100200148FFF74DBA00002402002035
S31508002410FEE700000FB4024610B504A9034B039863
S3150800242000F0F8F810BC5DF814FB0000E92D000870
S315080024300FB4054B10B503A9044A029800F0EAF850
S3150800244010BC5DF814FB0000E92D00081000002000
S315080024500907090E002804DB00F1E02080F80014C3
S31508002460704700F00F0000F1E02080F8141D704757
S3150800247002E008C8121F08C1002AFAD1704770473F
S31508002480002001E001C1121F002AFBD1704700009D
S315080024902DE9FF5F82B00021DDE90430020DDDF889
S315080024A040B0034318D044F61050A2F2FF3242431C
S315080024B01514119801281FD0A5EB0B00401C5FEAE4
S315080024C0000A4FF000064E4FDFF83891B0465046E6
S315080024D015D5CAF1000413E0119801244AA301286E
S315080024E001D16FEA0B010298119AC0E90031C0E9DF
S315080024F0024206B0BDE8F09FCBF10000DFE70446D4
S315080025000021404A491842EB0450CDE9001012E078
S31508002510E00707D032463B4640464946FDF78BFF63
S315080025208046894632463B4610461946FDF783FFE4
S3150800253006460F466410002CEAD1DDE90401DDE900
S315080025400023BAF1000F06DAFDF775FF42464B463F
S31508002550FDF771FF05E0FDF7E0FF42464B46FDF744
S31508002560DCFF04460E460022284BFEF75DF803D82A
S315080025704FF0FF30014607E00022254B2046314642
S31508002580FDF7B2FEFEF738F8102409E0002C0ADB46
S315080025900A220023FDF714FE039B30321A55641EE7
S315080025A050EA0102F2D1641C039AC4F111031444DF
S315080025B0119A012A03D0012208430DD10AE00843E3
S315080025C004D000204FF0110B119072E7A3EB0B0516
S315080025D06D1E0DE05B4504DD4FF0000205F10105B7
S315080025E004E003DA4FF00002A5F10105002AECD059
S315080025F002981199C0E90231C0E9004579E700005F
S31508002600000014400000F03F300000000000F043D6
S315080026100000E03F2DE9FF4F95B09B4689460646E8
S3150800262000250FE2252877D100242746F84A0121FC
S31508002630059400E0044316F8013F203B01FA03F035
S315080026401042F7D130782A2811D06FF02F0330784E
S31508002650A0F13002092A16D8059A44F0020402EBC2
S31508002660820203EB42021044761C0590EFE759F804
S31508002670042B0592002A03DA504244F400540590CC
S3150800268044F00204761C30782E2816D116F8010F6D
S3150800269044F004042A280DD06FF02F023078A0F1F8
S315080026A03003092B09D807EB870302EB4303C71846
S315080026B0761CF3E759F8047B761C30786C280FD023
S315080026C006DC4C2817D068280DD06A2814D104E0F7
S315080026D0742810D07A280FD10DE044F400140AE0CB
S315080026E044F4801401E044F440147278824202D122
S315080026F004F58014761C761C307866280BD013DC1B
S31508002700582877D009DC002875D04528F6D0462801
S31508002710F4D047281AD19DE118E0632835D06428FB
S3150800272079D0652812D195E1702873D008DC67281E
S31508002730F1D069286FD06E280DD06F2806D1B5E084
S3150800274073282CD0752875D0782874D05A461799CE
S3150800275090476D1C75E1C4F30250022809D003287E
S315080027600DD0D9F8001004280DD00D6009F1040920
S3150800277067E1D9F80010EA17C1E90052F6E7D9F877
S3150800278000100D80F2E70D70F0E719F8041B8DF8BC
S31508002790001000208DF80100EA46012003E059F8F0
S315080027A004AB4FF0FF3061074FF0000102D40DE093
S315080027B008F101018846B9420FDA8045F8DB1AF8B4
S315080027C008100029F4D108E008F101018846814281
S315080027D0FADB1AF808100029F6D105985B46A0EB33
S315080027E0080721463846179A00F094FA284400EB61
S315080027F0080507E04DE029E10DE01AF8010B5A46F5
S3150800280017999047B8F10108F7D25B462146384632
S31508002810179A13E142E00A220092C4F302524FF0DB
S31508002820000A022A08D059F804CB032A4FEAEC71A9
S315080028300AD00DE029E02AE009F1070121F0070294
S31508002840F2E802C1914609E00FFA8CFC4FEAEC71F6
S31508002850042A03D14FFA8CFC4FEAEC71002907DAF7
S315080028600A460021DCF1000C61EB02012D2202E090
S31508002870220504D52B228DF80420012203E0E20765
S3150800288001D02022F7E7904659E00A2102E01022FB
S315080028900DE010214FF0000A00910BE010224FF0D6
S315080028A0000A44F004040827009203E008224FF0C7
S315080028B0000A0092C4F30252022A05D059F804CB42
S315080028C00021032A08D009E009F1070121F00702CF
S315080028D0F2E802C1914605E01FFA8CFC042A01D1F0
S315080028E00CF0FF0C4FF00008220728D5702806D0F8
S315080028F0009B83F0100353EA0A0305D00EE040223A
S315080029008DF80420012208E05CEA010206D0302294
S315080029108DF804208DF8050002229046009B83F06E
S31508002920080353EA0A030AD15CEA010201D16207E5
S3150800293005D530228DF804204FF001087F1E58284F
S3150800294004D034A003900EA802900DE036A0F9E753
S3150800295053466046009AFDF733FC84460398825C2A
S315080029600298401E029002705CEA0100F0D10298BB
S3150800297006A9081A00F1200A600702D524F4803453
S3150800298000E00127574502DDA7EB0A0000E000201A
S3150800299000EB0A01009005984144401A0590E003AF
S315080029A006D45B462146179A059800F0B3F9054404
S315080029B0002706E001A85A46C05D179990476D1C86
S315080029C07F1C4745F6DBE0030CD55B462146179A84
S315080029D0059800F09FF9054404E030205A461799F7
S315080029E090476D1C0099481E00900029F5DC08E008
S315080029F0029802995A460078491C029117999047FD
S31508002A006D1CBAF10001AAF1010AF1DC65E10000CA
S31508002A1009280100303132333435363738396162A6
S31508002A20636465660000000030313233343536376A
S31508002A3038394142434445460000000000F058F941
S31508002A400544761C307800287FF4ECAD19B028468A
S31508002A50BDE8F08F620700D4062709F1070222F0C5
S31508002A60070CFCE80223E14603F000485FEA080C7D
S31508002A7002D00FF2702C0DE05FEA045C02D50FF26B
S31508002A80682C07E05FEAC47C02D00FF2602C01E0F4
S31508002A90AFF2700C4FF0FF3823F00043CDF850C06A
S31508002AA065280CD006DC452809D046281DD04728BD
S31508002AB03DD13DE0662818D067287ED138E0002150
S31508002AC0112F01DB112000E0781CCDE9000106A9D1
S31508002AD00EA8FFF7DDFCDDE90F010E9A0391002130
S31508002AE0009207F1010A04914DE04FF0004000976B
S31508002AF0CDE9011006A90EA8FFF7CAFCDDE90F0209
S31508002B0003920E9B11990022DDF80CA00093049203
S31508002B1011B9791C00EB010AB7EB0A0004D4C0F11D
S31508002B20FF3007F1010A0490AAEB0700019044E080
S31508002B30012F00DA01270021112F01DD112000E005
S31508002B403846CDE9000106A90EA8FFF7A1FCDDE984
S31508002B500F010E9A0391002104910092BA462107AB
S31508002B600CD40399514500DA8A46BAF1010F05DDFE
S31508002B70009AAAF10101515C302908D0B84202DA5C
S31508002B8010F1040F06DA0121CDE9011015E0AAF1CA
S31508002B900101E9E7002805DC049901440491AAEB40
S31508002BA0000102E0411C514500DD8A460499401A9D
S31508002BB0401C01904FF000400290200704D4019871
S31508002BC0504501DBCDF8048000208DF84F000298AF
S31508002BD00DF14F07B0F1004F25D02B200E9002982B
S31508002BE04FF0020800280CDA404202902D200E9081
S31508002BF007E00A210298FDF742FB3031029007F8F8
S31508002C00011DB8F10001A8F10108F2DC02980028BC
S31508002C10EFD1791E0E980870307800F0200040F049
S31508002C20450007F8020D12A8C01B00F10708149802
S31508002C30007800B1012000EB0A01019801EBE07170
S31508002C4005984144401A401E0590E00306D45B46A9
S31508002C502146179A059800F05DF8054414980078FF
S31508002C6018B15A46179990476D1CE00324D55B4660
S31508002C702146179A059800F04DF805441CE004987B
S31508002C80002807DBDDE90301884203DD0098405C84
S31508002C90179901E0179930205A469047049805F18C
S31508002CA00105401C04900198401E019004D12E2075
S31508002CB05A46179990476D1CBAF10001AAF1010A04
S31508002CC0DDDC05E017F8010B5A46179990476D1C8D
S31508002CD0B8F10001A8F10108F4DC5B462146179A11
S31508002CE00598ABE62D0000002B0000002000000030
S31508002CF02DE9F041044600251E461746880404D4EB
S31508002D0005E039462020B0476D1C641EF9D52846D3
S31508002D10BDE8F0812DE9F041044600251E4690469F
S31508002D20C80301D5302700E02027880404D505E02C
S31508002D3041463846B0476D1C641EF9D52846BDE89D
S31508002D40F081B4EEE00AF1EE10FA02D2B0EE610AB2
S31508002D507047B4EEC10AF1EE10FA02DDB0EE420A8F
S31508002D60704730EE600A32EE612A31EE601A20EEC4
S31508002D70020AC0EE010A30EEA10A7047B0EE423AE6
S31508002D80F0EE613A32EEC32AF0EE431AB6EE004A86
S31508002D90F4EEC10A42EE041AF1EE10FA0EDAB4EEB7
S31508002DA0E23AF1EE10FA09DAF4EEE03AF1EE10FA48
S31508002DB004D9F4EEC13AF1EE10FA02DBB0EE430A9A
S31508002DC07047B4EEE30AF1EE10FA06D2B0EE612AC5
S31508002DD0F0EE431AB0EE631A03E0B0EE622AF0EEA4
S31508002DE0630AFFF7AEBF000013B54FF0FF330122A9
S31508002DF069460248FEF790FF00981CBDDC010020DA
S31508002E008CB0FEF7A7F9FFF787F8FFF70DF8FEF77E
S31508002E10D5FFFFF741F8FFF75BF8C7221F4920489F
S31508002E20FEF7E0FC1F480068016821F00801016010
S31508002E30FDF700FD1C4C4FF4007BE06A2034FDF7DB
S31508002E400BFA81468A46A068FDF706FA07468846C1
S31508002E506068FDF701FA05460E462068FDF7FCF99D
S31508002E6041EC100BA07E0DF1200C637F227FE17EE2
S31508002E708CE80F00607E217ECDE906108DE8E0071C
S31508002E8053EC102B0948203CFFF7D2FA594608485C
S31508002E90FEF744F90A20FEF737F8CEE714000020BB
S31508002EA0DC0100206C02002010040020D42E00084B
S31508002EB000140240000000000000000001020304A4
S31508002EC006070809000000000102030400061016A0
S31508002ED0000610164C5F583D252E32662C4C5F595D
S31508002EE03D252E32662C525F583D252E32662C52D1
S31508002EF05F593D252E32662C413D25642C423D25E1
S31508002F00642C433D25642C443D25642C453D2564AD
S31508002F102C463D25642C0D0A000000003C2F0008B5
S31508002F20000000201400000070240008502F00083C
S31508002F30140000204C080000802400080024F40037
S31508002F400100000010000000000000000000000062
S7050800018968
